:020000040000FA
:0400000058EF00F0C5
:100008005B82FACF01F0FBCF02F0D9CF03F0DACF51
:1000180004F0F2AC12EF00F014EF00F04EEF00F035
:100028009DA819EF00F01BEF00F031EF00F09EA83B
:1000380020EF00F022EF00F031EF00F002D82FEFB0
:1000480000F00500FA6E0001F551FD6EF651FE6EE6
:10005800FF6AFA5012004EEF00F09DAA36EF00F04A
:1000680038EF00F04EEF00F09EAA3DEF00F03FEFB2
:1000780000F04EEF00F002D84CEF00F00500FA6EE9
:100088000001F351FD6EF451FE6EFF6AFA50120042
:100098004EEF00F004C0DAFF03C0D9FF02C0FBFF37
:0C00A80001C0FAFF5B92110005EF13F09D
:1010000000FC26D426C4261C19421BF0268C1D8603
:10101000277E2776276E2766275E275627E42646F3
:10102000205254433A203230253032782D25303248
:10103000782D2530327820253032783A25303278B4
:091040003A253032780D0A000057
:10104A004BC0D9FF4CC0DAFFDECFF6FFDDCFF7FF8A
:10105A00F86A0800F550250AD8A436EF08F038EFE8
:10106A0008F0D5EF09F04BC0D9FF4CC0DAFFDE2AF1
:10107A00000EDD22000E0001A26F000EA16FA1C0BA
:10108A00A5F0A2C0A6F0A369A469000ED66F000E4F
:10109A00D56F97EF08F0A5814BC0D9FF4CC0DAFF96
:1010AA00DE2A000EDD2297EF08F0A58351EF08F043
:1010BA00A58551EF08F0A58751EF08F0A58951EFF2
:1010CA0008F0000ED66F010ED56F97EF08F04BC0EF
:1010DA00D9FF4CC0DAFFDECFF6FFDDCFF7FFF86AA3
:1010EA000800F5504F6E506A5050000AD8B480EF8D
:1010FA0008F066EF08F04F50200AD8B460EF08F005
:10110A00030AD8B463EF08F0080AD8B45DEF08F010
:10111A00060AD8B450EF08F01D0AD8B45AEF08F0FE
:10112A0066EF08F0D551D611D8B49EEF08F0A0EFBB
:10113A0008F06CEF08F0A5A1A5EF08F0A7EF08F0FA
:10114A00A8EF08F0A5934BC0D9FF4CC0DAFFDECF59
:10115A00F6FFDDCFF7FFF86A0800F5502A0AD8A48F
:10116A00B9EF08F0BBEF08F0E4EF08F04BC0D9FF85
:10117A004CC0DAFFDE2A000EDD224DC0D9FF4EC078
:10118A00DAFFDFCF4FF0020EDE26DFCF50F0000E7F
:10119A00DD224FC0D9FF50C0DAFFDECFA1F0DDCF8C
:1011AA00A2F0A2BFDDEF08F0DBEF08F029EF09F0AB
:1011BA00A581A16DA21FD8B0A22B29EF09F04BC0BF
:1011CA00D9FF4CC0DAFFDECF0CF0DDCF0DF05EECBC
:1011DA000BF00CC0A1F00DC0A2F0FBEF08F04BC061
:1011EA00D9FF4CC0DAFFDE2A000EDD22D00E4F6E88
:1011FA00FF0E506E4BC0D9FF4CC0DAFFDECFF6FFB0
:10120A00DDCFF7FFF86A0800F550516E526A4F5069
:10121A0051265050522252500AE10A0E515CD8A06F
:10122A0019EF09F01CEF09F0010E1DEF09F0000E8D
:10123A000001D76FD86BD751D811D8A427EF09F07E
:10124A0029EF09F0F4EF08F04BC0D9FF4CC0DAFFE0
:10125A00DECFF6FFDDCFF7FFF86A0800F550780A0F
:10126A00D8B43AEF09F03CEF09F04FEF09F04BC060
:10127A00D9FF4CC0DAFFDECFF6FFDDCFF7FFF86A01
:10128A000800F550580AD8A44DEF09F04FEF09F0BD
:10129A009EEF09F04BC0D9FF4CC0DAFFDECFF6FF54
:1012AA00DDCFF7FFF86A0800F5CFD4F04BC0D9FFBD
:1012BA004CC0DAFFDE2A000EDD224DC0D9FF4EC037
:1012CA00DAFFDFCF4FF0020EDE26DFCF50F0000E3E
:1012DA00DD224FC0D9FF50C0DAFFDECF51F0DDCF9B
:1012EA0052F051C0CCF052C0CDF0CE6BCF6BD06B68
:1012FA00D16BD26BD36B49C022F04AC023F0CCC069
:10130A0024F0CDC025F0CEC026F0CFC027F0D0C043
:10131A0028F0D1C029F0D2C02AF0D3C02BF0D4C013
:10132A002CF0F2EC09F022C049F023C04AF0F1EFA8
:10133A0009F04BC0D9FF4CC0DAFFDECFF6FFDDCF94
:10134A00F7FFF86A0800F550250AD8A4AFEF09F0AC
:10135A00B1EF09F0C8EF09F04BC0D9FF4CC0DAFF72
:10136A00DE2A000EDD22000E086E250E076E49C029
:10137A0009F04AC00AF0F4EC0DF0000E4A6E010EB4
:10138A00496EF1EF09F04BC0D9FF4CC0DAFFDE2AF3
:10139A00000EDD22000E4A6E000E496EF1EF09F0D2
:1013AA004BC0D9FF4CC0DAFFDECFF6FFDDCFF7FF27
:1013BA00F86A0800F550076E086A49C009F04AC081
:1013CA000AF0F4EC0DF04BC0D9FF4CC0DAFFDE2A6C
:1013DA00000EDD22C2EF09F012000001A4BFF8EFEF
:1013EA0009F0FAEF09F0FBEF09F0A593A4BF08EFA3
:1013FA000AF0A45106E1A305D8B006EF0AF008EFF7
:10140A000AF00EEF0AF0000E3A6E010E396E12EF74
:10141A000AF0A3C039F0A4C03AF0A1C03BF0A2C0C0
:10142A003CF0A5A91BEF0AF01DEF0AF021EF0AF024
:10143A00FE0E3B26FF0E3C2224C03DF025C03EF0A6
:10144A0026C03FF027C040F028C041F029C042F032
:10145A002AC043F02BC044F0000E466E1F0E456EA4
:10146A00000ECA6FECEF0AF04506D8A046060F0E2A
:10147A003D14476E486A48BE4CEF0AF0485009E1ED
:10148A000A0E475CD8A04CEF0AF04EEF0AF056EF6E
:10149A000AF0570E4724476E000E4820486E5CEF4C
:1014AA000AF0300E4724476E000E4820486EBF0EE1
:1014BA002D6EFF0E2E6E2C502F6E306A2D502F2659
:1014CA002E50302230500AE11A0E2F5CD8A070EF4D
:1014DA000AF073EF0AF0010E74EF0AF0000E356E8F
:1014EA00366A35503610D8B47DEF0AF07FEF0AF02D
:1014FA00AFEF0AF09F0E2D6EFF0E2E6E200E4710D4
:10150A002F6E000E4810306E2D502F262E5030228E
:10151A0030500AE11A0E2F5CD8A096EF0AF099EF24
:10152A000AF0010E9AEF0AF0000E376E386A375049
:10153A003810D8B4A3EF0AF0A5EF0AF0AFEF0AF01B
:10154A0047C00BF048C00CF088EC10F00BC047F015
:10155A000CC048F0AB0E4524D96E000E4620DA6E58
:10156A0047C0DFFF3906D8A03A063B06D8A03C069A
:10157A003DC02DF03EC02EF03FC02FF040C030F0ED
:10158A0041C031F042C032F043C033F044C034F0BD
:10159A00050ED9EF0AF0D890343233323232313272
:1015AA0030322F322E322D32E82ED0EF0AF02DC0F3
:1015BA003DF02EC03EF02FC03FF030C040F031C0A9
:1015CA0041F032C042F033C043F034C044F046BE6A
:1015DA00F8EF0AF0465009E1020E455CD8A0F8EF90
:1015EA000AF0FAEF0AF02BEF0BF03D503E103F10D5
:1015FA0040104110421043104410D8A407EF0BF0DA
:10160A0009EF0BF039EF0AF03ABE16EF0BF03A5039
:10161A0006E13904D8B014EF0BF016EF0BF039EFEE
:10162A000AF03CBE21EF0BF03C5008E13B04D8A085
:10163A0021EF0BF023EF0BF02BEF0BF00001A5B31A
:10164A0029EF0BF02BEF0BF039EF0AF00001A5A9F7
:10165A0031EF0BF033EF0BF049EF0BF04506D8A052
:10166A004606AB0E4524D96E000E4620DA6E2CC013
:10167A00DFFF4506D8A04606AB0E4524D96E000EFC
:10168A004620DA6E300EDF6E22C017F023C018F043
:10169A00AB0E4524196E000E46201A6E3BC01BF095
:1016AA003CC01CF02BEC0CF017C022F018C023F041
:1016BA001200000E1A6E000E196E000E136E000E46
:1016CA00126E6AEF0BF00C4A0D2A010E186E0CC04E
:1016DA00F6FF0DC0F7FFF86A0800F550200AD8B4E3
:1016EA0079EF0BF07BEF0BF099EF0BF0F70E0E6E24
:1016FA00FF0E0F6E0CC0F6FF0DC0F7FFF86A080068
:10170A00F550106E116A0E5010260F50112211500A
:10171A0009E1050E105CD8A095EF0BF097EF0BF0DE
:10172A0099EF0BF0000E186E18C014F0156A1450D9
:10173A001510D8A4A3EF0BF0A5EF0BF068EF0BF090
:10174A00AFEF0BF0000E136E010E126E0C4A0D2A4B
:10175A00E6EF0BF00CC0F6FF0DC0F7FFF86A0800C1
:10176A00F5500E6E0F6A0F50000AD8B4BFEF0BF097
:10177A00E6EF0BF00E502B0AD8B4ABEF0BF0060ACB
:10178A00D8B4A7EF0BF0E6EF0BF019C005F01AC0BA
:10179A0006F0000E086E0A0E076ECFEC12F00CC0AF
:1017AA00F6FF0DC0F7FFF86A0800F550055E000E57
:1017BA00065A300E0524196E000E06201A6EABEF7B
:1017CA000BF0D00E0E6EFF0E0F6E0CC0F6FF0DC0A2
:1017DA00F7FFF86A0800F550106E116A0E501026CD
:1017EA000F50112211500AE10A0E105CD8A000EF26
:1017FA000CF003EF0CF0010E04EF0CF0000E166E65
:10180A00176A16501710D8A40DEF0CF00FEF0CF052
:10181A00CAEF0BF012501310D8A416EF0CF018EF01
:10182A000CF026EF0CF019C00EF01AC00FF00E1EC5
:10183A000F1E0E4A0F2A0EC00CF00FC00DF02AEF31
:10184A000CF019C00CF01AC00DF012000001A5A18D
:10185A0031EF0CF033EF0CF03DEF0CF019C010F043
:10186A001AC011F017C012F018C013F00CEC11F0E6
:10187A001CBE42EF0CF044EF0CF04AEF0CF01BC018
:10188A0020F01CC021F04EEF0CF0000E216E000E6D
:10189A00206E000E1F6E000E1E6E60EF0CF0000E22
:1018AA00086E200E076E17C009F018C00AF0F4EC93
:1018BA000DF01E4A1F2A20501E5C1F50800A1D6E02
:1018CA002150800A1D58D8A06DEF0CF06FEF0CF074
:1018DA0054EF0CF00001A5B175EF0CF077EF0CF0A6
:1018EA0081EF0CF019C010F01AC011F017C012F0F5
:1018FA0018C013F00CEC11F019C005F01AC006F06C
:10190A0003EC12F020500524176E21500620186EA1
:10191A00120050EC13F00009D8B496EF0CF098EFCF
:10192A000CF0D3EF0CF0A6EF0CF0C3EC13F0EFEFD2
:10193A000CF0BFEC13F0EFEF0CF0B7EC13F0EFEF95
:10194A000CF072C00EF073C00FF002D8B7EF0CF0B3
:10195A000500FA6E00016651FD6E6751FE6EFF6A60
:10196A00FA501200106E116A1150000AD8B4C0EF72
:10197A000CF0A2EF0CF01050010AD8B4A2EF0CF050
:10198A00030AD8B49AEF0CF0010AD8B49EEF0CF00F
:10199A00070AD8B4A2EF0CF0A2EF0CF00001839171
:1019AA007DC0D9FF7EC0DAFF7D4B7E2BDF50C7ECAE
:1019BA0013F000017F07D8A080077F518011D8A4B7
:1019CA00E9EF0CF0EBEF0CF0EEEF0CF0060EEFEF98
:1019DA000CF0030E1200840E5824D96EDA6A000E37
:1019EA00DA22000EDF6EABA4FDEF0CF0FFEF0CF075
:1019FA0013EF0DF0840E5824D96EDA6A000EDA223B
:101A0A000001DF8202D813EF0DF00500FA6EF151E2
:101A1A00FD6EF251FE6EFF6AFA501200ABA218EF89
:101A2A000DF01AEF0DF02EEF0DF0840E5824D96E3A
:101A3A00DA6A000EDA220001DF8402D82EEF0DF0F6
:101A4A000500FA6EEF51FD6EF051FE6EFF6AFA5014
:101A5A001200840E5824D96EDA6A000EDA22DF5098
:101A6A00D8B43AEF0DF03CEF0DF04BEF0DF002D881
:101A7A0049EF0DF00500FA6E0001ED51FD6EEE51D1
:101A8A00FE6EFF6AFA5012004DEF0DF0A4EC12F050
:101A9A0012003BEC13F0F28EF28C030E0001FC6F85
:101AAA00030EFB6F210EFA6F190EF96F300EF86FE5
:101ABA00FC0E196E000E1A6EFB0E1B6E000E1C6ECB
:101ACA00FA0E1D6E000E1E6EEEEC0FF0F90E196E78
:101ADA00000E1A6EF80E1B6E000E1C6ECB0E1D6EDB
:101AEA00000E1E6E86EC0EF0210E0001DF6F100E46
:101AFA00E06FFAC0E1F0E26BFBC0E3F0E46BFCC01C
:101B0A00E5F0E66BF9C0E7F0E86BF8C0E9F0EA6BDC
:101B1A00CBC0EBF0EC6BBAEC12F00B0E566E260E45
:101B2A00556E5E0EE82EFED7552EFCD7562EFAD7E6
:101B3A005DEF0DF058EF00F0DBEC13F07DC0D9FF3C
:101B4A007EC0DAFFDF6E00017D4B7E2B7F07D8A0B7
:101B5A0080077F518011D8B4B5EF0DF0B7EF0DF0C3
:101B6A00BCEF0DF0CBEC13F0050EF3EF0DF083870D
:101B7A00C7EF0DF0ABEC13F0F3EF0DF0AFEC13F091
:101B8A00F3EF0DF06CC00EF06DC00FF002D8D7EF76
:101B9A000DF00500FA6E6051FD6E6151FE6EFF6A2E
:101BAA00FA501200106E116A1150000AD8B4E0EF10
:101BBA000DF0C3EF0DF01050010AD8B4C3EF0DF0C9
:101BCA00030AD8B4BFEF0DF0010AD8B4BFEF0DF085
:101BDA00070AD8B4C3EF0DF0C3EF0DF01200095095
:101BEA000A10D8B4FBEF0DF0FDEF0DF006EF0EF082
:101BFA0009500A10D8A404EF0EF006EF0EF00BEF0E
:101C0A000EF0075084EC13F03EEF0EF020EE04F0D5
:101C1A000950D9260A50DA22DE50DE10D8B418EF5D
:101C2A000EF01AEF0EF035EF0EF020EE04F0095028
:101C3A00D9260A50DA2210EE02F00950E1260A509B
:101C4A00E222DE50E65CE650800A0F6EDE50800A21
:101C5A000F58D8B033EF0EF035EF0EF03EEF0EF01E
:101C6A0020EE02F00950D9260A50DA22DE2A000EA6
:101C7A00DD221200056E010E066E000183B548EFE3
:101C8A000EF04AEF0EF084EF0EF005C07CF083935D
:101C9A00838583910E0E816F010E7B6FF40E7A6F2E
:101CAA008387C20E606F270E616F000E6C6F000E85
:101CBA006D6FC20E626F270E636F000E6E6F000E9D
:101CCA006F6FC20E646F270E656F000E706F000E85
:101CDA00716FC20E666F270E676F000E726F000E6D
:101CEA00736FBE0E686F270E696F000E746F000E59
:101CFA00756FEDEC13F0F4EC12F0000E066E065060
:101D0A001200000E166E6F0E7CEC0FF01DC0D9FF8C
:101D1A001EC0DAFFDF6E1DC0D9FF1EC0DAFFDF501A
:101D2A007F0B1DC0D9FF1EC0DAFFDF6E010E166ED3
:101D3A006F0E7CEC0FF01BC0D9FF1CC0DAFFDF6E00
:101D4A001BC0D9FF1CC0DAFFDF507F0B1BC0D9FFB5
:101D5A001CC0DAFFDF6E020E166E6F0E7CEC0FF0FF
:101D6A0019C0D9FF1AC0DAFFDF6E19C0D9FF1AC02D
:101D7A00DAFFDF503F0B19C0D9FF1AC0DAFFDF6E56
:101D8A00120000018387D7EF0EF0BBEC13F003EFCC
:101D9A000FF0D9EC13F0030E03EF0FF0B7EC13F0CA
:101DAA0003EF0FF06CC00EF06DC00FF002D8E7EF32
:101DBA000EF00500FA6E6051FD6E6151FE6EFF6A0B
:101DCA00FA501200106E116A1150000AD8B4F0EFDE
:101DDA000EF0D3EF0EF01050010AD8B4D3EF0EF084
:101DEA00030AD8B4CAEF0EF0010AD8B4CAEF0EF04B
:101DFA00070AD8B4CEEF0EF0D3EF0EF01200096E38
:101E0A0005500610D8B40CEF0FF00EEF0FF028EFC4
:101E1A000FF00950020D600EF324D96E000EF42063
:101E2A00DA6E05C0DEFF06C0DDFF0950020D6C0E3A
:101E3A00F324D96E000EF420DA6E07C0DEFF08C064
:101E4A00DDFF40EF0FF00950020D600EF324D96E4A
:101E5A00000EF420DA6EC20EDE6E270EDD6E095019
:101E6A00020D6C0EF324D96E000EF420DA6E000E09
:101E7A00DE6E000EDD6E12009D9AE00E056E190EE2
:101E8A00066E93EC13F09D98A00E056E220E066E58
:101E9A008EEC13F0080EB86E900EAB6E240EAC6E7C
:101EAA00CF0EAF6E000EB06EDE0E056E270E066EFA
:101EBA009DEC13F0A20E056E270E066E98EC13F039
:101ECA00A80E056E270E066EA2EC13F0000E000196
:101EDA00A96F000E5A6E000E596E080EF76F000EAB
:101EEA00586E000E576E000EAA6F9D8A1200176E6A
:101EFA00000E186E17503FEC0EF00009D8B488EFA8
:101F0A000FF08AEF0FF07FEF0FF0C40E0A6E240E67
:101F1A000B6E180E0C6E000E0D6E2FEC13F0160ED3
:101F2A00056E000E066E000E086E010E076EE2ECDC
:101F3A0012F0000E0A6E000E0B6E000E0C6E000EF2
:101F4A000D6E23EC13F0A7EC13F08EEC12F0E806FA
:101F5A00D8B4B2EF0FF0B4EF0FF0AAEF0FF01850A9
:101F6A001200EDEC13F0000183A1BEEF0FF0C0EFF9
:101F7A000FF0CDEF0FF050EC13F00009D8B4C8EF12
:101F8A000FF0CAEF0FF0CDEF0FF00F0E0001816FC7
:101F9A0000018151020D010EF324F66E100EF42099
:101FAA00F76EF86A000EF8220900F5CF12F0090060
:101FBA00F5CF13F002D8EBEF0FF00500FA6E1250CE
:101FCA00FD6E1350FE6EFF6AFA5012000001816F17
:101FDA001200040E166E6F0E7CEC0FF019C0D9FFBA
:101FEA001AC0DAFFDF6E19C0D9FF1AC0DAFFDF5054
:101FFA003F0B19C0D9FF1AC0DAFFDF6E050E166E45
:10200A006F0E7CEC0FF01BC0D9FF1CC0DAFFDF6E2D
:10201A001BC0D9FF1CC0DAFFDF501F0B1BC0D9FF42
:10202A001CC0DAFFDF6E060E166E6F0E7CEC0FF028
:10203A001DC0D9FF1EC0DAFFDF6E120000018391B6
:10204A00020E826F31EF10F0BBEC13F055EF10F077
:10205A00B7EC13F055EF10F070C00EF071C00FF02E
:10206A0002D841EF10F00500FA6E6451FD6E655119
:10207A00FE6EFF6AFA501200106E116A1150000AC1
:10208A00D8B44AEF10F02DEF10F01050020AD8B46D
:10209A0029EF10F0010AD8B429EF10F02DEF10F053
:1020AA001200DBC053F0DCC054F0000E0001A06F38
:1020BA00000E9F6F74EF10F0D9C049F0DAC04AF0F1
:1020CA00530E4B6E000E4C6EDDC04DF0DEC04EF06E
:1020DA0025EC08F0495000019F274A50A02353C01D
:1020EA00F6FF54C0F7FFF86A0800F5500009D8A4B3
:1020FA0081EF10F083EF10F061EF10F09FC0D9F07C
:10210A00A0C0DAF012009F0E0D6EFF0E0E6E0BC00D
:10211A000FF00CC010F00D500F260E501022105068
:10212A000AE11A0E0F5CD8A09DEF10F0A0EF10F094
:10213A00010EA1EF10F0000E116E126A115012106A
:10214A00D8B4AAEF10F0ACEF10F0B2EF10F05F0EB7
:10215A000B140B6E0C6AB6EF10F00BC00BF00CC030
:10216A000CF01200056E0001F751D8B4BFEF10F061
:10217A00C1EF10F0B8EF10F09DB8C6EF10F0C8EF3D
:10218A0010F0CCEF10F005C0ADFFE1EF10F09D9814
:10219A00940E5A24D96EDA6A000EDA2205C0DFFFDD
:1021AA005A2A070E5A64DCEF10F0DEEF10F0E0EF67
:1021BA0010F0000E5A6EF7079D881200010E0B6E82
:1021CA00200E05180610D8B4EDEF10F0EFEF10F05E
:1021DA0008EF11F0F70E076EFF0E086E05C009F042
:1021EA0006C00AF00750092608500A220A5009E1D7
:1021FA00050E095CD8A004EF11F006EF11F008EF04
:10220A0011F0000E0B6E0BC005F0066A1200000EEC
:10221A00166E000E156E1DEF11F014C007F0086A55
:10222A0012C009F013C00AF0F4EC0DF0154A162A90
:10223A0015501024D96E16501120DA6EDF50146E24
:10224A001450D8A42BEF11F02DEF11F012EF11F06A
:10225A001200146E010E156E000183B337EF11F0F0
:10226A0039EF11F04EEF11F08383000E156E145002
:10227A00D8B442EF11F044EF11F048EF11F0010E1B
:10228A00816F4AEF11F0020E816FE7EC13F014EC44
:10229A0013F015501200080E0001F76157EF11F004
:1022AA0059EF11F06FEF11F0940E5924D96EDA6AD2
:1022BA00000EDA22DF50AD6E592A070E596468EF14
:1022CA0011F06AEF11F06CEF11F0000E596EF72B56
:1022DA0070EF11F09D98120020EE02F00E50D926F0
:1022EA000F50DA22DECF05F0DDCF06F00EC0D9FF9F
:1022FA000FC0DAFFDECF07F0DDCF08F0E2EC12F014
:10230A00000E0A6E000E0B6E000E0C6E000E0D6EA5
:10231A002FEC13F0020E12009F0E076EFF0E086ECE
:10232A00200E0510096E000E06100A6E07500926C7
:10233A0008500A220A500AE11A0E095CD8A0A8EF2E
:10234A0011F0ABEF11F0010EACEF11F0000E056EBB
:10235A00066A12009F0E076EFF0E086E05C009F08E
:10236A0006C00AF00750092608500A220A500AE154
:10237A001A0E095CD8A0C4EF11F0C7EF11F0010ED4
:10238A00C8EF11F0000E056E066A1200BF0E076E46
:10239A00FF0E086E05C009F006C00AF007500926AC
:1023AA0008500A220A500AE11A0E095CD8A0E0EF86
:1023BA0011F0E3EF11F0010EE4EF11F0000E056EDB
:1023CA00066A1200D00E076EFF0E086E05C009F0ED
:1023DA0006C00AF00750092608500A220A500AE1E4
:1023EA000A0E095CD8A0FCEF11F0FFEF11F0010E04
:1023FA0000EF12F0000E056E066A120005C007F023
:10240A0006C008F00BEF12F0054A062A05C0D9FFEC
:10241A0006C0DAFFDF50D8A415EF12F017EF12F05A
:10242A0009EF12F00750055C056E08500658066E53
:10243A001200000E8D6E000E8C6E000E896E000E5C
:10244A008A6E000E8B6E070E966E92689368BF0EA8
:10245A00946E95687E681F0E7F6E000E7C6EF18EFC
:10246A0012000EC005F00FC006F0000E086E010E35
:10247A00076EE2EC12F0000E0A6E000E0B6E000EF2
:10248A000C6E000E0D6E2FEC13F0040E12000EC02F
:10249A0005F00FC006F0000E086E020E076EE2ECA1
:1024AA0012F0000E0A6E000E0B6E000E0C6E000E7D
:1024BA000D6E2FEC13F0020E12000EC005F00FC0C5
:1024CA0006F0000E086E010E076EE2EC12F0000E26
:1024DA000A6E000E0B6E000E0C6E000E0D6E2FECC7
:1024EA0013F0020E12000EC005F00FC006F0000E27
:1024FA00086E020E076EE2EC12F0000E0A6E000E73
:10250A000B6E000E0C6E000E0D6E2FEC13F0040E07
:10251A001200010E056E000183B396EF12F098EFD8
:10252A0012F0A2EF12F083957C69EDEC13F0E9EC5E
:10253A0013F0EBEC13F082C005F0055012008C0E7C
:10254A005824D96EDA6A000EDA22AECFDFFF582A93
:10255A00070E5864B3EF12F0B5EF12F0B7EF12F0AE
:10256A00000E586E0001AA2B1200E10E0101026F43
:10257A00000E036F000E0001D96F000EDA6FDFC084
:10258A00DBF0E0C0DCF0020EDD6F010EDE6F56EC10
:10259A0010F0120005500702F3CF09F0F4CF0AF049
:1025AA0005500802F3500A2606500702F3500A267D
:1025BA0009C005F00AC006F01200000183A7E8EF7F
:1025CA0012F0EAEF12F0F3EF12F005C07DF006C048
:1025DA007EF007C07FF008C080F083971200C6BA69
:1025EA00F9EF12F0FBEF12F004EF13F0000EC76ED2
:1025FA00080EC66E000EC56E130EC86EC68A12008D
:10260A0000EE60F06C0EEE6AE806FDE15A6A596A5D
:10261A00586A576A5B905B9200014EEF0DF01AEF11
:10262A0013F05AEC13F0B6EC0FF0000183B320EF6D
:10263A0013F022EF13F016EF13F012000AC005F0A0
:10264A000BC006F00CC007F00DC008F0020E04EC37
:10265A000FF012000AC005F00BC006F00CC007F01C
:10266A000DC008F0000E04EC0FF01200D7EC13F0C6
:10267A0046EC13F01EEC12F089EC13F041EC0FF06B
:10268A001200000EC76E080EC66E000EC56E130E3F
:10269A00C86EC69A1200C5BC55EF13F058EF13F076
:1026AA00010E59EF13F0000E12009EA65FEF13F011
:1026BA0061EF13F05AEF13F01200000183817C518D
:1026CA007C25C7EC13F0030E120000018381D88029
:1026DA007C35C7EC13F0050E120000018393000E3F
:1026EA00826F0E0E120000018391DDEC13F0040ECE
:1026FA00120000018393000E826F0E0E1200066E06
:10270A000650B7EC10F01200600ED36E000E9B6EEE
:10271A00120005C0F5F006C0F6F0120005C0F3F08D
:10272A0006C0F4F0120005C0EFF006C0F0F0120087
:10273A0005C0F1F006C0F2F0120005C0EDF006C0C7
:10274A00EEF01200000E2EEC11F01200CEEC13F097
:10275A00090E1200CEEC13F00A0E1200CBEC13F0A5
:10276A00050E1200E3EC13F0000E1200E5EC13F074
:10277A00010E1200E5EC13F0020E1200E5EC13F064
:10278A00010E1200056E05C0C9FF1200C59AC58860
:10279A001200C58AC5881200AB98AB881200A4EC57
:1027AA0012F01200D09E12009E861200C95012002A
:1027BA00C5861200050E1200010E1200C584120011
:1027CA00C5821200C58012009D961200C69A120098
:0627DA009E9612001200A1
:020000040020DA
:08000000FFFFFFFFFFFFFFFF00
:020000040030CA
:0E000000FF081F1EFF0B81FF0FC00FE00F4017
:00000001FF
