:020000040000FA
:0400000058EF00F0C5
:100008005B82FACF01F0FBCF02F0D9CF03F0DACF51
:1000180004F0F2AC12EF00F014EF00F04EEF00F035
:100028009DA819EF00F01BEF00F031EF00F09EA83B
:1000380020EF00F022EF00F031EF00F002D82FEFB0
:1000480000F00500FA6E0001FA51FD6EFB51FE6EDC
:10005800FF6AFA5012004EEF00F09DAA36EF00F04A
:1000680038EF00F04EEF00F09EAA3DEF00F03FEFB2
:1000780000F04EEF00F002D84CEF00F00500FA6EE9
:100088000001F851FD6EF951FE6EFF6AFA50120038
:100098004EEF00F004C0DAFF03C0D9FF02C0FBFF37
:0C00A80001C0FAFF5B92110066EF13F03C
:1010000000BE27962786271C19461BB227901D482D
:1010100028402838283028282820281828A627B82B
:10102000205254433A203230253032782D25303248
:10103000782D2530327820253032783A25303278B4
:091040003A253032780D0A000057
:10104A004BC0D9FF4CC0DAFFDECFF6FFDDCFF7FF8A
:10105A00F86A0800F550250AD8A436EF08F038EFE8
:10106A0008F0D5EF09F04BC0D9FF4CC0DAFFDE2AF1
:10107A00000EDD22000E0001A26F000EA16FA1C0BA
:10108A00A5F0A2C0A6F0A369A469000EDB6F000E4A
:10109A00DA6F97EF08F0A5814BC0D9FF4CC0DAFF91
:1010AA00DE2A000EDD2297EF08F0A58351EF08F043
:1010BA00A58551EF08F0A58751EF08F0A58951EFF2
:1010CA0008F0000EDB6F010EDA6F97EF08F04BC0E5
:1010DA00D9FF4CC0DAFFDECFF6FFDDCFF7FFF86AA3
:1010EA000800F5504F6E506A5050000AD8B480EF8D
:1010FA0008F066EF08F04F50200AD8B460EF08F005
:10110A00030AD8B463EF08F0080AD8B45DEF08F010
:10111A00060AD8B450EF08F01D0AD8B45AEF08F0FE
:10112A0066EF08F0DA51DB11D8B49EEF08F0A0EFB1
:10113A0008F06CEF08F0A5A1A5EF08F0A7EF08F0FA
:10114A00A8EF08F0A5934BC0D9FF4CC0DAFFDECF59
:10115A00F6FFDDCFF7FFF86A0800F5502A0AD8A48F
:10116A00B9EF08F0BBEF08F0E4EF08F04BC0D9FF85
:10117A004CC0DAFFDE2A000EDD224DC0D9FF4EC078
:10118A00DAFFDFCF4FF0020EDE26DFCF50F0000E7F
:10119A00DD224FC0D9FF50C0DAFFDECFA1F0DDCF8C
:1011AA00A2F0A2BFDDEF08F0DBEF08F029EF09F0AB
:1011BA00A581A16DA21FD8B0A22B29EF09F04BC0BF
:1011CA00D9FF4CC0DAFFDECF0CF0DDCF0DF05EECBC
:1011DA000BF00CC0A1F00DC0A2F0FBEF08F04BC061
:1011EA00D9FF4CC0DAFFDE2A000EDD22D00E4F6E88
:1011FA00FF0E506E4BC0D9FF4CC0DAFFDECFF6FFB0
:10120A00DDCFF7FFF86A0800F550516E526A4F5069
:10121A0051265050522252500AE10A0E515CD8A06F
:10122A0019EF09F01CEF09F0010E1DEF09F0000E8D
:10123A000001DC6FDD6BDC51DD11D8A427EF09F06A
:10124A0029EF09F0F4EF08F04BC0D9FF4CC0DAFFE0
:10125A00DECFF6FFDDCFF7FFF86A0800F550780A0F
:10126A00D8B43AEF09F03CEF09F04FEF09F04BC060
:10127A00D9FF4CC0DAFFDECFF6FFDDCFF7FFF86A01
:10128A000800F550580AD8A44DEF09F04FEF09F0BD
:10129A009EEF09F04BC0D9FF4CC0DAFFDECFF6FF54
:1012AA00DDCFF7FFF86A0800F5CFD9F04BC0D9FFB8
:1012BA004CC0DAFFDE2A000EDD224DC0D9FF4EC037
:1012CA00DAFFDFCF4FF0020EDE26DFCF50F0000E3E
:1012DA00DD224FC0D9FF50C0DAFFDECF51F0DDCF9B
:1012EA0052F051C0D1F052C0D2F0D36BD46BD56B4F
:1012FA00D66BD76BD86B49C022F04AC023F0D1C055
:10130A0024F0D2C025F0D3C026F0D4C027F0D5C02F
:10131A0028F0D6C029F0D7C02AF0D8C02BF0D9C0FF
:10132A002CF0F2EC09F022C049F023C04AF0F1EFA8
:10133A0009F04BC0D9FF4CC0DAFFDECFF6FFDDCF94
:10134A00F7FFF86A0800F550250AD8A4AFEF09F0AC
:10135A00B1EF09F0C8EF09F04BC0D9FF4CC0DAFF72
:10136A00DE2A000EDD22000E086E250E076E49C029
:10137A0009F04AC00AF0F6EC0DF0000E4A6E010EB2
:10138A00496EF1EF09F04BC0D9FF4CC0DAFFDE2AF3
:10139A00000EDD22000E4A6E000E496EF1EF09F0D2
:1013AA004BC0D9FF4CC0DAFFDECFF6FFDDCFF7FF27
:1013BA00F86A0800F550076E086A49C009F04AC081
:1013CA000AF0F6EC0DF04BC0D9FF4CC0DAFFDE2A6A
:1013DA00000EDD22C2EF09F012000001A4BFF8EFEF
:1013EA0009F0FAEF09F0FBEF09F0A593A4BF08EFA3
:1013FA000AF0A45106E1A305D8B006EF0AF008EFF7
:10140A000AF00EEF0AF0000E3A6E010E396E12EF74
:10141A000AF0A3C039F0A4C03AF0A1C03BF0A2C0C0
:10142A003CF0A5A91BEF0AF01DEF0AF021EF0AF024
:10143A00FE0E3B26FF0E3C2224C03DF025C03EF0A6
:10144A0026C03FF027C040F028C041F029C042F032
:10145A002AC043F02BC044F0000E466E1F0E456EA4
:10146A00000ECA6FECEF0AF04506D8A046060F0E2A
:10147A003D14476E486A48BE4CEF0AF0485009E1ED
:10148A000A0E475CD8A04CEF0AF04EEF0AF056EF6E
:10149A000AF0570E4724476E000E4820486E5CEF4C
:1014AA000AF0300E4724476E000E4820486EBF0EE1
:1014BA002D6EFF0E2E6E2C502F6E306A2D502F2659
:1014CA002E50302230500AE11A0E2F5CD8A070EF4D
:1014DA000AF073EF0AF0010E74EF0AF0000E356E8F
:1014EA00366A35503610D8B47DEF0AF07FEF0AF02D
:1014FA00AFEF0AF09F0E2D6EFF0E2E6E200E4710D4
:10150A002F6E000E4810306E2D502F262E5030228E
:10151A0030500AE11A0E2F5CD8A096EF0AF099EF24
:10152A000AF0010E9AEF0AF0000E376E386A375049
:10153A003810D8B4A3EF0AF0A5EF0AF0AFEF0AF01B
:10154A0047C00BF048C00CF0C1EC10F00BC047F0DC
:10155A000CC048F0AB0E4524D96E000E4620DA6E58
:10156A0047C0DFFF3906D8A03A063B06D8A03C069A
:10157A003DC02DF03EC02EF03FC02FF040C030F0ED
:10158A0041C031F042C032F043C033F044C034F0BD
:10159A00050ED9EF0AF0D890343233323232313272
:1015AA0030322F322E322D32E82ED0EF0AF02DC0F3
:1015BA003DF02EC03EF02FC03FF030C040F031C0A9
:1015CA0041F032C042F033C043F034C044F046BE6A
:1015DA00F8EF0AF0465009E1020E455CD8A0F8EF90
:1015EA000AF0FAEF0AF02BEF0BF03D503E103F10D5
:1015FA0040104110421043104410D8A407EF0BF0DA
:10160A0009EF0BF039EF0AF03ABE16EF0BF03A5039
:10161A0006E13904D8B014EF0BF016EF0BF039EFEE
:10162A000AF03CBE21EF0BF03C5008E13B04D8A085
:10163A0021EF0BF023EF0BF02BEF0BF00001A5B31A
:10164A0029EF0BF02BEF0BF039EF0AF00001A5A9F7
:10165A0031EF0BF033EF0BF049EF0BF04506D8A052
:10166A004606AB0E4524D96E000E4620DA6E2CC013
:10167A00DFFF4506D8A04606AB0E4524D96E000EFC
:10168A004620DA6E300EDF6E22C017F023C018F043
:10169A00AB0E4524196E000E46201A6E3BC01BF095
:1016AA003CC01CF02BEC0CF017C022F018C023F041
:1016BA001200000E1A6E000E196E000E136E000E46
:1016CA00126E6AEF0BF00C4A0D2A010E186E0CC04E
:1016DA00F6FF0DC0F7FFF86A0800F550200AD8B4E3
:1016EA0079EF0BF07BEF0BF099EF0BF0F70E0E6E24
:1016FA00FF0E0F6E0CC0F6FF0DC0F7FFF86A080068
:10170A00F550106E116A0E5010260F50112211500A
:10171A0009E1050E105CD8A095EF0BF097EF0BF0DE
:10172A0099EF0BF0000E186E18C014F0156A1450D9
:10173A001510D8A4A3EF0BF0A5EF0BF068EF0BF090
:10174A00AFEF0BF0000E136E010E126E0C4A0D2A4B
:10175A00E6EF0BF00CC0F6FF0DC0F7FFF86A0800C1
:10176A00F5500E6E0F6A0F50000AD8B4BFEF0BF097
:10177A00E6EF0BF00E502B0AD8B4ABEF0BF0060ACB
:10178A00D8B4A7EF0BF0E6EF0BF019C005F01AC0BA
:10179A0006F0000E086E0A0E076E30EC13F00CC04D
:1017AA00F6FF0DC0F7FFF86A0800F550055E000E57
:1017BA00065A300E0524196E000E06201A6EABEF7B
:1017CA000BF0D00E0E6EFF0E0F6E0CC0F6FF0DC0A2
:1017DA00F7FFF86A0800F550106E116A0E501026CD
:1017EA000F50112211500AE10A0E105CD8A000EF26
:1017FA000CF003EF0CF0010E04EF0CF0000E166E65
:10180A00176A16501710D8A40DEF0CF00FEF0CF052
:10181A00CAEF0BF012501310D8A416EF0CF018EF01
:10182A000CF026EF0CF019C00EF01AC00FF00E1EC5
:10183A000F1E0E4A0F2A0EC00CF00FC00DF02AEF31
:10184A000CF019C00CF01AC00DF012000001A5A18D
:10185A0031EF0CF033EF0CF03DEF0CF019C010F043
:10186A001AC011F017C012F018C013F06DEC11F085
:10187A001CBE42EF0CF044EF0CF04AEF0CF01BC018
:10188A0020F01CC021F04EEF0CF0000E216E000E6D
:10189A00206E000E1F6E000E1E6E60EF0CF0000E22
:1018AA00086E200E076E17C009F018C00AF0F6EC91
:1018BA000DF01E4A1F2A20501E5C1F50800A1D6E02
:1018CA002150800A1D58D8A06DEF0CF06FEF0CF074
:1018DA0054EF0CF00001A5B175EF0CF077EF0CF0A6
:1018EA0081EF0CF019C010F01AC011F017C012F0F5
:1018FA0018C013F06DEC11F019C005F01AC006F00B
:10190A0064EC12F020500524176E21500620186E40
:10191A001200B1EC13F00009D8B496EF0CF098EF6E
:10192A000CF0D3EF0CF0A6EF0CF024EC14F0EFEF70
:10193A000CF020EC14F0EFEF0CF018EC14F0EFEFD1
:10194A000CF072C00EF073C00FF002D8B7EF0CF0B3
:10195A000500FA6E00016651FD6E6751FE6EFF6A60
:10196A00FA501200106E116A1150000AD8B4C0EF72
:10197A000CF0A2EF0CF01050010AD8B4A2EF0CF050
:10198A00030AD8B49AEF0CF0010AD8B49EEF0CF00F
:10199A00070AD8B4A2EF0CF0A2EF0CF00001839171
:1019AA007DC0D9FF7EC0DAFF7D4B7E2BDF5028EC4D
:1019BA0014F000017F07D8A080077F518011D8A4B6
:1019CA00E9EF0CF0EBEF0CF0EEEF0CF0060EEFEF98
:1019DA000CF0030E1200840E5824D96EDA6A000E37
:1019EA00DA22000EDF6EABA4FDEF0CF0FFEF0CF075
:1019FA0013EF0DF0840E5824D96EDA6A000EDA223B
:101A0A000001DF8202D813EF0DF00500FA6EF651DD
:101A1A00FD6EF751FE6EFF6AFA501200ABA218EF84
:101A2A000DF01AEF0DF02EEF0DF0840E5824D96E3A
:101A3A00DA6A000EDA220001DF8402D82EEF0DF0F6
:101A4A000500FA6EF451FD6EF551FE6EFF6AFA500A
:101A5A001200840E5824D96EDA6A000EDA22DF5098
:101A6A00D8B43AEF0DF03CEF0DF04BEF0DF002D881
:101A7A0049EF0DF00500FA6E0001F251FD6EF351C7
:101A8A00FE6EFF6AFA5012004DEF0DF005EC13F0EE
:101A9A0012009CEC13F045EC11F0F28EF28C020E5F
:101AAA000001D06F030ECF6F210ECE6F140ECD6FD3
:101ABA00000ECC6FD00E196E000E1A6ECF0E1B6E72
:101ACA00000E1C6ECE0E1D6E000E1E6E27EC10F060
:101ADA00CD0E196E000E1A6ECC0E1B6E000E1C6E09
:101AEA00CB0E1D6E000E1E6E88EC0EF0210E00014C
:101AFA00E46F100EE56FCEC0E6F0E76BCFC0E8F0FA
:101B0A00E96BD0C0EAF0EB6BCDC0ECF0ED6BCCC06A
:101B1A00EEF0EF6BCBC0F0F0F16B1BEC13F00B0E99
:101B2A00566E260E556E5E0EE82EFED7552EFCD743
:101B3A00562EFAD75FEF0DF058EF00F03CEC14F098
:101B4A007DC0D9FF7EC0DAFFDF6E00017D4B7E2BA0
:101B5A007F07D8A080077F518011D8B4B7EF0DF066
:101B6A00B9EF0DF0BEEF0DF02CEC14F0050EF5EF09
:101B7A000DF08387C9EF0DF00CEC14F0F5EF0DF0C2
:101B8A0010EC14F0F5EF0DF06CC00EF06DC00FF014
:101B9A0002D8D9EF0DF00500FA6E6051FD6E615161
:101BAA00FE6EFF6AFA501200106E116A1150000A96
:101BBA00D8B4E2EF0DF0C5EF0DF01050010AD8B419
:101BCA00C5EF0DF0030AD8B4C1EF0DF0010AD8B47D
:101BDA00C1EF0DF0070AD8B4C5EF0DF0C5EF0DF04F
:101BEA00120009500A10D8B4FDEF0DF0FFEF0DF006
:101BFA0008EF0EF009500A10D8A406EF0EF008EF0D
:101C0A000EF00DEF0EF00750E5EC13F040EF0EF07A
:101C1A0020EE04F00950D9260A50DA22DE50DE10EE
:101C2A00D8B41AEF0EF01CEF0EF037EF0EF020EEDC
:101C3A0004F00950D9260A50DA2210EE02F00950AF
:101C4A00E1260A50E222DE50E65CE650800A0F6E78
:101C5A00DE50800A0F58D8B035EF0EF037EF0EF08D
:101C6A0040EF0EF020EE02F00950D9260A50DA228F
:101C7A00DE2A000EDD221200056E010E066E00013C
:101C8A0083B54AEF0EF04CEF0EF086EF0EF005C06A
:101C9A007CF08393838583910E0E816F010E7B6F97
:101CAA00F40E7A6F8387840E606F280E616F000EC0
:101CBA006C6F000E6D6F840E626F280E636F000EDC
:101CCA006E6F000E6F6F840E646F280E656F000EC4
:101CDA00706F000E716F840E666F280E676F000EAC
:101CEA00726F000E736F800E686F280E696F000E98
:101CFA00746F000E756F4EEC14F055EC13F0000E75
:101D0A00066E06501200000E166E6F0E7EEC0FF075
:101D1A001DC0D9FF1EC0DAFFDF6E1DC0D9FF1EC06D
:101D2A00DAFFDF507F0B1DC0D9FF1EC0DAFFDF6E5E
:101D3A00010E166E6F0E7EEC0FF01BC0D9FF1CC091
:101D4A00DAFFDF6E1BC0D9FF1CC0DAFFDF507F0B42
:101D5A001BC0D9FF1CC0DAFFDF6E020E166E6F0EB3
:101D6A007EEC0FF019C0D9FF1AC0DAFFDF6E19C076
:101D7A00D9FF1AC0DAFFDF503F0B19C0D9FF1AC0CA
:101D8A00DAFFDF6E120000018387D9EF0EF01CEC38
:101D9A0014F005EF0FF03AEC14F0030E05EF0FF014
:101DAA0018EC14F005EF0FF06CC00EF06DC00FF0D8
:101DBA0002D8E9EF0EF00500FA6E6051FD6E61512E
:101DCA00FE6EFF6AFA501200106E116A1150000A74
:101DDA00D8B4F2EF0EF0D5EF0EF01050010AD8B4D5
:101DEA00D5EF0EF0030AD8B4CCEF0EF0010AD8B43E
:101DFA00CCEF0EF0070AD8B4D0EF0EF0D5EF0EF004
:101E0A001200096E05500610D8B40EEF0FF010EF4D
:101E1A000FF02AEF0FF00950020D600EF324D96E6D
:101E2A00000EF420DA6E05C0DEFF06C0DDFF0950A1
:101E3A00020D6C0EF324D96E000EF420DA6E07C080
:101E4A00DEFF08C0DDFF42EF0FF00950020D600E01
:101E5A00F324D96E000EF420DA6E840EDE6E280E9C
:101E6A00DD6E0950020D6C0EF324D96E000EF420BB
:101E7A00DA6E000EDE6E000EDD6E12009D9AE00E26
:101E8A00056E190E066EF4EC13F09D98620E056E3F
:101E9A00230E066EEFEC13F0080EB86E900EAB6EC2
:101EAA00240EAC6ECF0EAF6E000EB06EA00E056E95
:101EBA00280E066EFEEC13F0640E056E280E066EF2
:101ECA00F9EC13F06A0E056E280E066E03EC14F098
:101EDA00000E0001A96F000E5A6E000E596E080E10
:101EEA00FC6F000E586E000E576E000EAA6F9D8A88
:101EFA001200176E000E186E175041EC0EF0000912
:101F0A00D8B48AEF0FF08CEF0FF081EF0FF0860E46
:101F1A000A6E250E0B6E180E0C6E000E0D6E90ECEE
:101F2A0013F0160E056E000E066E000E086E010EF8
:101F3A00076E43EC13F0000E0A6E000E0B6E000ED5
:101F4A000C6E000E0D6E84EC13F008EC14F0EFEC3E
:101F5A0012F0E806D8B4B4EF0FF0B6EF0FF0ACEF1A
:101F6A000FF0185012004EEC14F0000183A1C0EFDC
:101F7A000FF0C2EF0FF0CFEF0FF0B1EC13F0000942
:101F8A00D8B4CAEF0FF0CCEF0FF0CFEF0FF00F0E6F
:101F9A000001816F00018151020D010EF324F66EDA
:101FAA00100EF420F76EF86A000EF8220900F5CF39
:101FBA0012F00900F5CF13F002D8EDEF0FF005008B
:101FCA00FA6E1250FD6E1350FE6EFF6AFA5012003E
:101FDA000001816F1200186E185041EC0EF00009D2
:101FEA00D8B4FAEF0FF0FCEF0FF0F1EF0FF02E0E6E
:101FFA000A6E250E0B6E170E0C6E000E0D6E90EC0F
:10200A0013F0160E056E000E066E000E086E010E17
:10201A00076E43EC13F0000E0A6E000E0B6E000EF4
:10202A000C6E000E0D6E84EC13F008EC14F0EFEC5D
:10203A0012F0E806D8B424EF10F026EF10F01CEFE7
:10204A0010F01200040E166E6F0E7EEC0FF019C01F
:10205A00D9FF1AC0DAFFDF6E19C0D9FF1AC0DAFF3A
:10206A00DF503F0B19C0D9FF1AC0DAFFDF6E050E29
:10207A00166E6F0E7EEC0FF01BC0D9FF1CC0DAFF84
:10208A00DF6E1BC0D9FF1CC0DAFFDF501F0B1BC05D
:10209A00D9FF1CC0DAFFDF6E060E166E6F0E7EECDD
:1020AA000FF01DC0D9FF1EC0DAFFDF6E120000015B
:1020BA008391020E826F6AEF10F01CEC14F08EEF1F
:1020CA0010F018EC14F08EEF10F070C00EF071C022
:1020DA000FF002D87AEF10F00500FA6E6451FD6E27
:1020EA006551FE6EFF6AFA501200106E116A1150A5
:1020FA00000AD8B483EF10F066EF10F01050020A0D
:10210A00D8B462EF10F0010AD8B462EF10F066EFAB
:10211A0010F01200E0C053F0E1C054F0000E0001CC
:10212A00A06F000E9F6FADEF10F0DEC049F0DFC068
:10213A004AF0530E4B6E000E4C6EE2C04DF0E3C0F7
:10214A004EF025EC08F0495000019F274A50A02381
:10215A0053C0F6FF54C0F7FFF86A0800F5500009AB
:10216A00D8A4BAEF10F0BCEF10F09AEF10F09FC0AD
:10217A00DEF0A0C0DFF012009F0E0D6EFF0E0E6E95
:10218A000BC00FF00CC010F00D500F260E5010228D
:10219A0010500AE11A0E0F5CD8A0D6EF10F0D9EF52
:1021AA0010F0010EDAEF10F0000E116E126A1150E3
:1021BA001210D8B4E3EF10F0E5EF10F0EBEF10F0E7
:1021CA005F0E0B140B6E0C6AEFEF10F00BC00BF0E6
:1021DA000CC00CF01200056E0001FC51D8B4F8EFE7
:1021EA0010F0FAEF10F0F1EF10F09DB8FFEF10F0D9
:1021FA0001EF11F005EF11F005C0ADFF1AEF11F074
:10220A009D98940E5A24D96EDA6A000EDA2205C015
:10221A00DFFF5A2A070E5A6415EF11F017EF11F073
:10222A0019EF11F0000E5A6EFC079D881200010E7C
:10223A000B6E200E05180610D8B426EF11F028EF01
:10224A0011F041EF11F0F70E076EFF0E086E05C090
:10225A0009F006C00AF00750092608500A220A5057
:10226A0009E1050E095CD8A03DEF11F03FEF11F02E
:10227A0041EF11F0000E0B6E0BC005F0066A12005A
:10228A00030E166E080E176E6F0EF0EC0FF0000EAE
:10229A00166E800E176E6F0EF0EC0FF0020E166EB1
:1022AA00010E176E6F0EF0EC0FF0070E166E400E51
:1022BA00176E6F0EF0EC0FF00B0E1A6E260E196EDB
:1022CA005E0EE82EFED7192EFCD71A2EFAD7120068
:1022DA00000E166E000E156E7EEF11F014C007F098
:1022EA00086A12C009F013C00AF0F6EC0DF0154A9C
:1022FA00162A15501024D96E16501120DA6EDF50A6
:10230A00146E1450D8A48CEF11F08EEF11F073EF05
:10231A0011F01200146E010E156E000183B398EFCE
:10232A0011F09AEF11F0AFEF11F08383000E156EE2
:10233A001450D8B4A3EF11F0A5EF11F0A9EF11F0E2
:10234A00010E816FABEF11F0020E816F48EC14F0B1
:10235A0075EC13F015501200080E0001FC61B8EF7D
:10236A0011F0BAEF11F0D0EF11F0940E5924D96E92
:10237A00DA6A000EDA22DF50AD6E592A070E596466
:10238A00C9EF11F0CBEF11F0CDEF11F0000E596E3D
:10239A00FC2BD1EF11F09D98120020EE02F00E50A6
:1023AA00D9260F50DA22DECF05F0DDCF06F00EC0B7
:1023BA00D9FF0FC0DAFFDECF07F0DDCF08F043EC1C
:1023CA0013F0000E0A6E000E0B6E000E0C6E000E5D
:1023DA000D6E90EC13F0020E12009F0E076EFF0EA8
:1023EA00086E200E0510096E000E06100A6E0750C0
:1023FA00092608500A220A500AE11A0E095CD8A0D6
:10240A0009EF12F00CEF12F0010E0DEF12F0000EB0
:10241A00056E066A12009F0E076EFF0E086E05C053
:10242A0009F006C00AF00750092608500A220A5085
:10243A000AE11A0E095CD8A025EF12F028EF12F073
:10244A00010E29EF12F0000E056E066A1200BF0E89
:10245A00076EFF0E086E05C009F006C00AF00750A5
:10246A00092608500A220A500AE11A0E095CD8A065
:10247A0041EF12F044EF12F0010E45EF12F0000E98
:10248A00056E066A1200D00E076EFF0E086E05C0B2
:10249A0009F006C00AF00750092608500A220A5015
:1024AA000AE10A0E095CD8A05DEF12F060EF12F0A3
:1024BA00010E61EF12F0000E056E066A120005C0E9
:1024CA0007F006C008F06CEF12F0054A062A05C0AC
:1024DA00D9FF06C0DAFFDF50D8A476EF12F078EF02
:1024EA0012F06AEF12F00750055C056E08500658A4
:1024FA00066E1200000E8D6E000E8C6E000E896E36
:10250A00000E8A6E000E8B6E070E966E92689368A6
:10251A00BF0E946E95687E681F0E7F6E000E7C6EED
:10252A00F18E12000EC005F00FC006F0000E086E04
:10253A00010E076E43EC13F0000E0A6E000E0B6ECE
:10254A00000E0C6E000E0D6E90EC13F0040E1200CD
:10255A000EC005F00FC006F0000E086E020E076EE0
:10256A0043EC13F0000E0A6E000E0B6E000E0C6E9A
:10257A00000E0D6E90EC13F0020E12000EC005F064
:10258A000FC006F0000E086E010E076E43EC13F042
:10259A00000E0A6E000E0B6E000E0C6E000E0D6E13
:1025AA0090EC13F0020E12000EC005F00FC006F0F8
:1025BA00000E086E020E076E43EC13F0000E0A6E50
:1025CA00000E0B6E000E0C6E000E0D6E90EC13F0EA
:1025DA00040E1200010E056E000183B3F7EF12F02C
:1025EA00F9EF12F003EF13F083957C694EEC14F0C7
:1025FA004AEC14F04CEC14F082C005F005501200BD
:10260A008C0E5824D96EDA6A000EDA22AECFDFFFBA
:10261A00582A070E586414EF13F016EF13F018EF48
:10262A0013F0000E586E0001AA2B1200E60E0101EB
:10263A00026F000E036F000E0001DE6F000EDF6FE7
:10264A00E4C0E0F0E5C0E1F0020EE26F010EE36FD4
:10265A008FEC10F0120005500702F3CF09F0F4CF07
:10266A000AF005500802F3500A2606500702F350F2
:10267A000A2609C005F00AC006F01200000183A765
:10268A0049EF13F04BEF13F054EF13F005C07DF050
:10269A0006C07EF007C07FF008C080F08397120062
:1026AA00C6BA5AEF13F05CEF13F065EF13F0000EA1
:1026BA00C76E080EC66E000EC56E130EC86EC68AA9
:1026CA00120000EE60F0710EEE6AE806FDE15A6A49
:1026DA00596A586A576A5B905B9200014EEF0DF097
:1026EA007BEF13F0BBEC13F0B8EC0FF0000183B3EF
:1026FA0081EF13F083EF13F077EF13F012000AC0A3
:10270A0005F00BC006F00CC007F00DC008F0020E71
:10271A0006EC0FF012000AC005F00BC006F00CC060
:10272A0007F00DC008F0000E06EC0FF0120038ECAE
:10273A0014F0A7EC13F07FEC12F0EAEC13F043EC80
:10274A000FF01200000EC76E080EC66E000EC56EA0
:10275A00130EC86EC69A1200C5BCB6EF13F0B9EFD5
:10276A0013F0010EBAEF13F0000E12009EA6C0EF8E
:10277A0013F0C2EF13F0BBEF13F0120000018381D4
:10278A007C517C2528EC14F0030E12000001838191
:10279A00D8807C3528EC14F0050E120000018393D2
:1027AA00000E826F0E0E1200000183913EEC14F0AF
:1027BA00040E120000018393000E826F0E0E1200A7
:1027CA00066E0650F0EC10F01200600ED36E000E8A
:1027DA009B6E120005C0FAF006C0FBF0120005C09D
:1027EA00F8F006C0F9F0120005C0F4F006C0F5F0E2
:1027FA00120005C0F6F006C0F7F0120005C0F2F0AC
:10280A0006C0F3F01200000E8FEC11F012002FEC4C
:10281A0014F0090E12002FEC14F00A0E12002CEC20
:10282A0014F0050E120044EC14F0000E120046ECEF
:10283A0014F0010E120046EC14F0020E120046ECDF
:10284A0014F0010E1200056E05C0C9FF1200C59AE8
:10285A00C5881200C58AC5881200AB98AB881200D9
:10286A0005EC13F01200D09E12009E861200C95089
:10287A001200C5861200050E1200010E1200C58450
:10288A001200C5821200C58012009D961200C69AD7
:08289A0012009E9612001200CC
:020000040020DA
:08000000FFFFFFFFFFFFFFFF00
:020000040030CA
:0E000000FF081F1EFF0B81FF0FC00FE00F4017
:00000001FF
